{
  "contractName": "Verifier",
  "abi": [
    {
      "constant": true,
      "inputs": [],
      "name": "blockCount",
      "outputs": [
        {
          "name": "",
          "type": "uint256"
        }
      ],
      "payable": false,
      "stateMutability": "view",
      "type": "function",
      "signature": "0x07225b4d"
    },
    {
      "constant": true,
      "inputs": [
        {
          "name": "",
          "type": "uint256"
        }
      ],
      "name": "tasks",
      "outputs": [
        {
          "name": "id",
          "type": "uint256"
        },
        {
          "name": "content",
          "type": "string"
        }
      ],
      "payable": false,
      "stateMutability": "view",
      "type": "function",
      "signature": "0x8d977672"
    },
    {
      "inputs": [],
      "payable": false,
      "stateMutability": "nonpayable",
      "type": "constructor",
      "signature": "constructor"
    },
    {
      "anonymous": false,
      "inputs": [
        {
          "indexed": false,
          "name": "id",
          "type": "uint256"
        },
        {
          "indexed": false,
          "name": "content",
          "type": "string"
        }
      ],
      "name": "TaskCreated",
      "type": "event",
      "signature": "0xa5ed9e6226c584326505694539c95cb0e3238ae09bcda5a65c00bbfdab1c6662"
    },
    {
      "constant": false,
      "inputs": [
        {
          "name": "_content",
          "type": "string"
        }
      ],
      "name": "createTask",
      "outputs": [],
      "payable": false,
      "stateMutability": "nonpayable",
      "type": "function",
      "signature": "0x111002aa"
    }
  ],
  "bytecode": "0x60806040526000805534801561001457600080fd5b506100626040805190810160405280600881526020017f6861736868686831000000000000000000000000000000000000000000000000815250610067640100000000026401000000009004565b61021b565b6000808154809291906001019190505550604080519081016040528060005481526020018281525060016000805481526020019081526020016000206000820151816000015560208201518160010190805190602001906100c9929190610176565b509050507fa5ed9e6226c584326505694539c95cb0e3238ae09bcda5a65c00bbfdab1c6662600054826040518083815260200180602001828103825283818151815260200191508051906020019080838360005b8381101561013857808201518184015260208101905061011d565b50505050905090810190601f1680156101655780820380516001836020036101000a031916815260200191505b50935050505060405180910390a150565b828054600181600116156101000203166002900490600052602060002090601f016020900481019282601f106101b757805160ff19168380011785556101e5565b828001600101855582156101e5579182015b828111156101e45782518255916020019190600101906101c9565b5b5090506101f291906101f6565b5090565b61021891905b808211156102145760008160009055506001016101fc565b5090565b90565b6104ac8061022a6000396000f3fe608060405260043610610057576000357c0100000000000000000000000000000000000000000000000000000000900463ffffffff16806307225b4d1461005c578063111002aa146100875780638d9776721461014f575b600080fd5b34801561006857600080fd5b5061007161020a565b6040518082815260200191505060405180910390f35b34801561009357600080fd5b5061014d600480360360208110156100aa57600080fd5b81019080803590602001906401000000008111156100c757600080fd5b8201836020820111156100d957600080fd5b803590602001918460018302840111640100000000831117156100fb57600080fd5b91908080601f016020809104026020016040519081016040528093929190818152602001838380828437600081840152601f19601f820116905080830192505050505050509192919290505050610210565b005b34801561015b57600080fd5b506101886004803603602081101561017257600080fd5b810190808035906020019092919050505061031f565b6040518083815260200180602001828103825283818151815260200191508051906020019080838360005b838110156101ce5780820151818401526020810190506101b3565b50505050905090810190601f1680156101fb5780820380516001836020036101000a031916815260200191505b50935050505060405180910390f35b60005481565b6000808154809291906001019190505550604080519081016040528060005481526020018281525060016000805481526020019081526020016000206000820151816000015560208201518160010190805190602001906102729291906103db565b509050507fa5ed9e6226c584326505694539c95cb0e3238ae09bcda5a65c00bbfdab1c6662600054826040518083815260200180602001828103825283818151815260200191508051906020019080838360005b838110156102e15780820151818401526020810190506102c6565b50505050905090810190601f16801561030e5780820380516001836020036101000a031916815260200191505b50935050505060405180910390a150565b6001602052806000526040600020600091509050806000015490806001018054600181600116156101000203166002900480601f0160208091040260200160405190810160405280929190818152602001828054600181600116156101000203166002900480156103d15780601f106103a6576101008083540402835291602001916103d1565b820191906000526020600020905b8154815290600101906020018083116103b457829003601f168201915b5050505050905082565b828054600181600116156101000203166002900490600052602060002090601f016020900481019282601f1061041c57805160ff191683800117855561044a565b8280016001018555821561044a579182015b8281111561044957825182559160200191906001019061042e565b5b509050610457919061045b565b5090565b61047d91905b80821115610479576000816000905550600101610461565b5090565b9056fea165627a7a72305820c64d103a22e63ea6e038c827672479613e53bb11e3b5ad4407c516299e046c4e0029",
  "source": "pragma solidity >=0.5.0;\n\ncontract Verifier{\n    uint public blockCount = 0;\n\n    struct HashMake {\n        uint id;\n        string content;\n    }\n\n    mapping(uint => HashMake) public tasks;\n    event TaskCreated(\n        uint id,\n        string content\n    );\n    constructor() public{\n        createTask(\"hashhhh1\");\n    }\n    function createTask(string memory _content) public {\n        blockCount ++;\n        tasks[blockCount] = HashMake(blockCount,_content);\n        emit TaskCreated(blockCount, _content);\n    }\n}",
  "sourcePath": "/home/karishma/Documents/projects/verifier/contracts/Verifier.sol",
  "compiler": {
    "name": "solc",
    "version": "0.5.0+commit.1d4f565a.Emscripten.clang"
  },
  "schemaVersion": "3.0.1",
  "updatedAt": "2022-10-11T15:18:21.937Z",
  "devdoc": {
    "methods": {}
  },
  "userdoc": {
    "methods": {}
  }
}